:020000040800F2
:10000000F80D002079020008F92000088F1F000871
:10001000F52000081D1C0008473100080000000002
:100020000000000000000000000000005929000846
:10003000811C0008000000005B240008F12A000871
:100040009302000893020008930200088927000821
:100050009302000893020008851C00089302000820
:10006000930200089302000893020008930200081C
:10007000930200089302000893020008930200080C
:1000800093020008930200089302000893020008FC
:1000900093020008930200089302000893020008EC
:1000A00093020008930200089302000893020008DC
:1000B000552B00086D2B00089302000893020008DE
:1000C00093020008930200089302000893020008BC
:1000D000930200086D2D0008F52D00088D2E0008F4
:1000E000930200089302000893020008930200089C
:1000F000930200089302000893020008930200088C
:1001000093020008E9270008930200089302000800
:10011000930200089302000893020008DD2B0008F8
:10012000930200089302000893020008930200085B
:1001300000F002F800F090F80AA090E8000C824469
:100140008344AAF10107DA4501D100F085F8AFF246
:10015000090EBAE80F0013F0010F18BFFB1A43F0A5
:1001600001031847743B0000943B0000103A24BF81
:1001700078C878C1FAD8520724BF30C830C144BF0C
:1001800004680C607047000000230024002500264E
:10019000103A28BF78C1FBD8520728BF30C148BFEA
:1001A0000B6070476E2900F0B282702900F0018464
:1001B000662903F01885652903F01585672903F082
:1001C00012856129AFF3008003681B0A28BF41F044
:1001D0008001692900F08A80642900F087807529F0
:1001E00000F084806F2900F08E83782900F0CD83A1
:1001F000E92900F02983E42900F02683F52900F09D
:100200002383EF2900F08B83F82900F0CC83036867
:10021000DB0928BF41F08001632900F03386732990
:1002200000F03886E32900F04386F32900F0488681
:10023000002070471FB500F099FE04000020002147
:1002400003F0C0FA401C60600020002103F0A4FA13
:10025000E0601FBD10B510BD00F05AFE1146FFF75B
:10026000E9FF03F0C1F800F037FF03B4FFF7F2FF36
:1002700003BC02F085FF0000094880470948004799
:10028000FEE7FEE7FEE7FEE7FEE7FEE7FEE7FEE746
:10029000FEE7FEE704480549054A064B70470000A3
:1002A000F52A000831010008F8070020F80D0020A9
:1002B000F8090020F8090020704700000FB4044935
:1002C00010B503AA029800F04FFA10BC5DF814FBB9
:1002D000140000200FB4044910B503AA029800F0DE
:1002E00043FA10BC5DF814FB140000202DE9F04126
:1002F0000646002410687529314616A510D000F076
:1003000072F9002802DA404213A507E031688A0733
:1003100001D512A502E0490704D511A5012401E089
:1003200000F06AF900210A2206F1240709E0B0FB77
:10033000F2FCB0FBF2F302FB1C003030785418469C
:10034000491C0028F3D123462A463046BDE8F04137
:1003500000F084B9000000002D0000002B00000018
:10036000200000002DE9F05F894604464FF0000AA6
:10037000DFF874B1FB44C0F820A02046E16888474C
:10038000002874D0252806D0D4E901219047206A9E
:10039000401C2062F1E700265F462046E16888475E
:1003A0002028054607DB312D05D2781910F8200CDE
:1003B00008B10643F1E7B00701D526F00406C4F8FA
:1003C0001CA00027C4F818A02A2D09D0284602F046
:1003D000D0FE38B304EB8708303DC8F8185019E058
:1003E00059F8041B204604EB87029161E1688847B5
:1003F000012F054618D1E069002820DA26F02006F2
:100400001DE0D8F8180000EB800005EB4000303804
:10041000C8F818002046E1688847054602F0A9FEA2
:100420000028EED1012F0AD02E2D08D12046E168F8
:1004300088477F1C0546022F46F02006C4DBA069D2
:10044000002803DA404246F00106A061F00701D01F
:1004500026F010066C2D0BD0682D09D04C2D39D00C
:100460006A2D35D0742D35D07A2D33D016E038E092
:10047000E1682F4620468847B842054609D16C2FCF
:1004800026D04FF48060E168064320468847054641
:1004900004E06C2F1AD04FF4807006430DB3A5F121
:1004A0004100192802D8203546F400664A462946FC
:1004B000204626604E46FFF775FE80B101280BD01E
:1004C000F61D26F0070000F1080956E74020E4E792
:1004D0008020D8E70020D6E706F104094DE728463A
:1004E00052E7206ABDE8F09F8A38000030B5054623
:1004F0000B462A4613F8014B12F8010B08B1A04233
:10050000F8D01CB1002802D06D1CF1E7284630BDA0
:100510004FF0013C50F8042B51F8043B9A4221D192
:10052000A2EB0C03934313EACC1317D150F8042B1E
:1005300051F8043B9A4215D1A2EB0C03934313EA02
:10054000CC130BD150F8042B51F8043B9A4209D13B
:10055000A2EB0C03934313EACC13DBD04FF0000063
:10056000704700BFD01A01BAB1FA81F101F0180149
:1005700022FA01F0CB40C1F12001DBB2C0B2C01AB7
:100580002CFA01F3D11A914311EAC311E6D1704755
:10059000704770477047704770B5044685690068BA
:1005A000C10601D5302600E02026C00707D070BD67
:1005B000D4E9012130469047206A401C20626D1E1C
:1005C000F6D570BD70B5044685690078C00707D1BF
:1005D00070BDD4E9012120209047206A401C206290
:1005E0006D1EF6D570BD09684A0501D540B2704749
:1005F000C905FCD500B2704709684A0501D5C0B2EB
:100600007047C905FCD580B2704770B50C460546E9
:10061000012A05D02878800600D5EA69002302E087
:10062000012305E05B1C934202D2E05C0028F9D173
:10063000A869E618C01AA861286A184428622846E2
:10064000FFF7AAFF04E0D5E9012114F8010B904758
:10065000B442F8D32846FFF7B5FF70BD2DE9F04747
:100660000D4699469246044600F124080168880622
:1006700004D5E06921F01001216000E00120A842CA
:1006800001DD471B00E00027A1697A1902EB090090
:10069000081AA0612078C00602D42046FFF77CFF2C
:1006A000002608E0D4E901211AF806009047206AE4
:1006B000401C761C20624E45F4DB2078C0060AD52B
:1006C0002046FFF769FF06E0D4E90121302090477A
:1006D000206A401C2062381EA7F10107F4DC07E005
:1006E000D4E9012118F805009047206A401C2062D7
:1006F000281EA5F10105F3DC2046FFF763FF2078F3
:10070000000602D50220BDE8F0870120FBE7116852
:100710000268006A530501D508700AE0D30501D5C7
:10072000088006E0130603D5C217C1E9000200E005
:10073000086001207047000001694A1C02610878C6
:10074000704700B58FB0CDE9013100210591054911
:100750007944CDE9031011466846FFF703FE0FB058
:1007600000BD0000E5FFFFFF074B70B50D467B4461
:10077000FFF7E7FF0446284600F0A6FB10B14FF054
:10078000FF3070BD204670BDA32A00002DE9FF5F39
:1007900015468A460446DFF8AC80F8440027D8E9BD
:1007A00000103E46CDE9001010E03AF816106A46F7
:1007B00002A800F08DFB411C07D02178890603D5E3
:1007C000E269391891420DD80744761C20788006DA
:1007D00002D5E069B84205DDAE42E6DB3AF8160024
:1007E0000028E2D1A069C01BA0612046FFF7D4FE1B
:1007F000D8E90010CDE90010002017E03AF81810F1
:100800006A4602A800F064FBB0F1FF3F81460BD0BE
:1008100000250DF1080B05E0D4E901211BF80500C6
:1008200090476D1C4D45F7D308F10100B04280465A
:10083000E4DB206A384420622046FFF7C3FEBDE8AF
:10084000FF9F0000763400002DE9F0418046D21D64
:1008500022F007020025D2E90002F52915A614D0DE
:10086000011E72F1000106DA0023D0EB030063EBF6
:10087000020211A608E0D8F800108B0701D50FA6D8
:1008800002E0490701D50EA601251146002408F112
:10089000240704E000F098F830323A55641C50EA1E
:1008A0000102F7D12B46324621464046BDE8F041D1
:1008B000FFF7D4BE000000002D0000002B00000058
:1008C0002000000030B4002100F1240408E002F010
:1008D0000705D208303542EA4372DB086554491CEB
:1008E00052EA0305F3D10468002310A2250707D5B7
:1008F000A40600D421B1C46901230DA2641EC46101
:1009000030BCFFF7ABBE10B5044621461068FFF7B8
:1009100073FE02462046BDE810400023D2E7D21DF8
:1009200022F00701D1E90023CCE70000000000001D
:1009300030000000F0B40D460188090502D5214CB5
:100940007C4402E01F4C7C440E34002100F124065C
:1009500008E002F00F071209E75D42EA03721B0983
:100960007754491C52EA0307F3D102780023120797
:1009700004D5702D06D009B1022311342246F0BCF3
:10098000FFF76CBE01231034F8E770B504460D463E
:1009900021461068FFF730FE024629462046BDE892
:1009A00070400023C6E7D21D22F00703D3E90023DD
:1009B000C0E70368126843F0200303600823C361A3
:1009C0000023B7E7D832000030B5B0F10A024FEA91
:1009D000900E71F100034EEA817EB0EB0E0061EBE8
:1009E00091014FEA101E4EEA017E10EB0E0041EB22
:1009F00011114FEA102E4EEA016E10EB0E0041EB82
:100A000011214FEA104E4EEA014E10EB0E0041EB61
:100A10001141401841F100014FEAD00040EA417015
:100A20004FEAD10110EB80054FEA810444EA90744B
:100A300044EB01046D1944EB0404521BA3414FF035
:100A4000000348BF0A3200D530BD401C41F100010F
:100A500030BD70472DE9FF4F0C461E464FF0FF3763
:100A60008BB0D2E90001DDF860800A908A46C1F3BC
:100A70000A5505B93D46002108464FF00000BAF17D
:100A8000000F00F4400005DA00EB80004FF4400155
:100A900001EA50004FEA9059B9F1010F00DDB94663
:100AA0000A9850EA4A000ED044F61050A5F2FF35DD
:100AB00045432F14B8F1000F1ED07542291E1EDDCC
:100AC000C9F100021CE0B8F1010F4FF0000001D0A5
:100AD000302103E0F24305E02154401CB042FBDB2F
:100AE00030460022002121540B99C1F80880C1E949
:100AF00000200FB0BDE8F08FBD1B6D1CDEE74A463D
:100B000000DA694206A800F075FA06AB93E8070020
:100B100003AB83E8070050460A9900F0EBFA8DE832
:100B20000700A0F500501F3800900398002D0ADD43
:100B300042F21F014A460844002303A90390684675
:100B400000F054FD09E0A0F500504A461F3800238C
:100B500003A90390684600F05EFD8DE807000004DD
:100B6000000C03D04FF0FF30410800E01046B8F110
:100B7000000F03D00022009215461EE0751E05D41A
:100B8000FFF722FF303262556D1EF9D5B3460122C0
:100B9000084302D000227F1C04E02078302801D1D5
:100BA00000227F1E002A099784D01DE0112D07DA4C
:100BB000FFF70AFF303262556D1C50EA0102F5D191
:100BC000084302D00098C8B10EE00021681E05E07D
:100BD000235C625C63542254401E491C8142F7DB53
:100BE000AB46A81B401E0990002004F80B000B9890
:100BF000099AC0F80880C0E9002B7AE711264FF067
:100C0000000857E72DE9F04F88460446D21D22F030
:100C1000070191B0D1E90001CDE90A0102F095FA8E
:100C200002460B98C00F01D02D2007E020688107F5
:100C300001D52B2002E0202101EAC000032A0990FF
:100C400001D0072A05DB03464146204600F092F911
:100C50000BE12078800601D5E06900E00620B8F1BC
:100C6000650F814606D0B8F1660F18D0B8F1670F4E
:100C700070D131E00020B9F1110F009001DB112398
:100C800001E009F101030AAA01A90CA8FFF7E2FE9D
:100C9000DDE90C70002609F10105834647E00120DB
:100CA0004B4600904FF000470AAA01A90CA8FFF795
:100CB000D1FEDDE90DB00C995D46002610B909F1B1
:100CC00001000D18B9EB050003D4C0F1FF3609F19E
:100CD0000105A5EB09002BE0B9F1010F01DA4FF096
:100CE00001090020B9F1110F0090484601DD1123E0
:100CF00000E003460AAA01A90CA8FFF7ABFEDDE954
:100D00000C704D4600268346207800070AD4AB4578
:100D100000DA5D4601A8012D04DD411911F8011C1E
:100D2000302907D04F4502DA17F1040F04DA012009
:100D300082460FE06D1EEEE7002F02DCED1B3E4405
:100D400003E0781CA84200DD7D1CB81B00F1010AFD
:100D50004FF000472078000703D4AA4501DB4FF08D
:100D6000FF3A0021B7F1004F0DF143088DF8431011
:100D700024D002202B23002F01DA7F422D230A21C9
:100D8000021EA0F1010000DC5FB197FBF1FC97FBB4
:100D9000F1F201FB1C7C17460CF1300C08F801CD78
:100DA000EEE7A8F1010003702188090501D545216E
:100DB00000E06521A0F1010800F8011C09980FA9C5
:100DC000A1EB0807FF1D00B10120411901EBEA70FA
:100DD000A1693844081A401EA0612078C00602D4D8
:100DE0002046FFF7D9FB099828B1D4E901219047A3
:100DF000206A401C20622078C00622D52046FFF7DA
:100E0000CBFB1EE0002E04DBB34502DD01A8805DB4
:100E100000E03020D4E901219047206A401C206284
:100E2000761CAAF101005FEA000A0AD100F09EF8E0
:100E3000C0680168405CD4E901219047206A401CE9
:100E40002062281EA5F10105DCDC07E0D4E90121C0
:100E500018F8010B9047206A401C2062381EA7F149
:100E60000107F3DC2046FFF7ADFB032011B041E69C
:100E700010B5436913B1AFF3008001E0FFF7C5FB84
:100E8000012010BD127800F124010A7000224A707E
:100E90000122EDE711684FF0FF32E9E710B5436931
:100EA00013B1AFF3008001E0FFF770FC012010BD2B
:100EB000128800F1240182840022C2840122EDE71D
:100EC00011684FF0FF32E9E7007B00F080007047C7
:100ED00070B516460C46054600F040F8036893F8D6
:100EE0000101012806D0FF2C0FD8185D68B1012040
:100EF0002C7070BDD3F807013246214603F2071368
:100F000003442846BDE8704018474FF0FF3070BDDD
:100F1000754600F0EBF8AE4605006946534620F0F2
:100F20000700854618B020B5FFF7B4F9BDE82040AA
:100F30004FF000064FF000074FF000084FF0000B95
:100F400021F00701AC46ACE8C009ACE8C009ACE848
:100F5000C009ACE8C0098D467047000010B500F02C
:100F600005F8001D10BD00BF5D2800000048704757
:100F7000B80700202DE9F0411F460446032601680A
:100F8000072A01F4006004DB08B116A505E016A5E8
:100F900003E008B115A500E015A521F010002060C0
:100FA000A069C01EA0610FB1401EA0612046FFF7DE
:100FB000F3FA4FB1D4E9012138469047206A401C2A
:100FC0002062C01C206206E0206AFAE7D4E9012111
:100FD00015F8010B9047761EF8D22046FFF7F2FA7B
:100FE000BDE8F0814E414E006E616E00494E4600F4
:100FF000696E66002DE9F047814616468AB035488D
:1010000078440DC88DE80D0032487844801C03AC4C
:101010000DC884E80D0041F69B300844372190FB51
:10102000F1F290FBF1F5A5F1800501FB12041B3CE8
:1010300002D56442012000E00020DFF898A080463D
:101040000027FA44AAF1BE0A0EE0E0070AD03246B1
:10105000684607EB470101230AEB810100F0DBFA48
:101060008DE8070064107F1C002CEED1194F7F44DF
:10107000AE3F19E0E80715D007EB04100DF1180A90
:1010800090E80E008AE80E00C068F04201D198197D
:1010900008903246012306A903A800F0BCFA03AB6E
:1010A00083E807006D10641C002DE3D14FF00103AD
:1010B00032466946B8F1000F03A802D000F096FA54
:1010C00001E000F0A8FAC9E90001C9F808200AB057
:1010D000BDE8F087BC2C000010B50446AFF30080DB
:1010E0002046BDE81040FFF7C0B800000048704738
:1010F000980700205FEA400C08BF91F0000F4FEA0C
:101100008C234FEAC12243EA51514FEA1C5018BFC9
:1011100000F5F0404FEA300018BF41F000415FEAAF
:101120006C5C00F02980BCF1FF3F08BF40F08040BC
:101130007047130C06BF12044FF0100C4FF0000C58
:10114000130E04BF12020CF1080C130F04BF12019E
:101150000CF1040C930F04BF92000CF1020CD30F9E
:1011600004BF52000CF1010C11464FF00002A0F137
:101170001F00A0EB0C00704711F0004F08BF704734
:1011800031F000413FF4D5AF0B0C06BF09044FF01E
:10119000100C4FF0000C0B0E04BF09020CF1080CF0
:1011A0000B0F04BF09010CF1040C8B0F04BF890065
:1011B0000CF1020CCB0F04BF49000CF1010CCCF177
:1011C0002003A0EB0C0022FA03F302FA0CF241EA2E
:1011D000030100F10100704720F07F4C80EA03001A
:1011E00023F07F47ACEB070303F57C5300F000408E
:1011F00003F1FF032DE980494FEA154B09B44FEA8B
:10120000144325EA0B4E24EA03480FF2042606EBAA
:10121000132749083E785FEA320203FB0667C7F5E9
:10122000000707FB06F64FEA54374FEAD64606F1A9
:10123000020607FB066CCCF1005C4FEA1C472CEA67
:10124000074C07FB06F40CFB06F504EB15464FEACA
:10125000961634BF00204FF000404FEAD13706FB0E
:1012600007FC4FEA1C4C0CFB0BF7D21B03FB0CF7E3
:1012700061EB07010CFB0EF7B0EB074072EB174276
:101280000CFB08F734BFA2EB0742B2EB074261EB5D
:1012900017414FEA0C444FEA910706FB07FC4FEA5F
:1012A0001C4C0CFB0BF7B0EBC74072EB573203FB47
:1012B0000CF734BFA2EBC742B2EBC74261EB573128
:1012C0000CFB0EF7B0EBC70072EB57720CFB08F784
:1012D00034BFA2EBC702B2EBC70261EB5771039FA9
:1012E0004FEA816141EA921104EBCC044FEAD13715
:1012F0004FEA826206FB07FC42EA90124FEA8060E6
:101300004FEA1C4C0CFB0BF7D21B03FB0CF761EBF9
:1013100007010CFB0EF7B0EB074072EB17420CFB1A
:1013200008F734BFA2EB0742B2EB074261EB17416B
:101330004FEA8C554FEA910704EB9C2406FB07FC0F
:101340004FEA1C4C0CFB0BF7B0EBC74072EB57326B
:1013500003FB0CF734BFA2EBC742B2EBC74261EB11
:1013600057310CFB0EF7B0EBC70072EB57720CFB5A
:1013700008F734BFA2EBC702B2EBC70261EB5771AB
:1013800015EB4C254FEA816141EA92114FEA8262E6
:101390004FEAD13742EA901206FB07FC44F1000401
:1013A0004FEA80604FEA1C4C0CFB0BF7D21B03FB8F
:1013B0000CF761EB07010CFB0EF7B0EB074072EB8B
:1013C00017420CFB08F734BFA2EB0742B2EB07420F
:1013D00061EB174115EB1C154FEA813141EA92414F
:1013E0004FEA823242EA90424FEA80304FEA0C766E
:1013F00044F1000448EA03434EEA0B484FF0000E64
:10140000B2EB080C71EB030724BF624639464EEB82
:101410000E0E4FF0000B0018524149414BEB0B0BE5
:10142000B2EB080C71EB03077BF1000B24BF6246A3
:1014300039464EEB0E0E4FF0000B00185241494159
:101440004BEB0B0BB2EB080C71EB03077BF1000BC2
:1014500024BF624639464EEB0E0E51EA020718BF12
:1014600046F0010616EB0E7655F1000254F100012C
:1014700003D5BDE88901BDE80088BDE88901BDE864
:101480000048B619524141EB0101A3F10103704735
:1014900080807F7E7D7C7B7A7978777676757473B1
:1014A000727171706F6E6E6D6C6C6B6A6A69686870
:1014B000676666656464636362616160605F5F5E06
:1014C0005E5D5D5C5C5B5B5A5A595958585757567C
:1014D00056555555545453535252525151505050E1
:1014E0004F4F4F4E4E4D4D4D4C4C4C4B4B4B4A4A33
:1014F0004A49494948484847474747464646454577
:1015000045444444444343434342424242414141AF
:10151000002B9C4630D477002BD01CB54FEA370700
:1015200003B44FF010004FF01001BAF1000F06D0D5
:10153000BCF1000FDCBF40F0080040F008014FF0A4
:1015400000000FBCBDE810400BF1010BBBF1010F17
:1015500008BF5FEA170722BF12F1010211F1010172
:101560004FF0004143F1000300F0004043EA000067
:101570007047F9D35708D0E746EA064613F1400F03
:101580004FEA16461FDD13F1200FDFBF16430A4650
:10159000002120335B42BED0C3F1200746EA064655
:1015A00002FA07F74FEA164646EA0706C3F1200794
:1015B00022FA03F201FA07F721FA03F14FF00003D0
:1015C00042EA0702A7E746EA020646EA06464FEA6B
:1015D000164646EA0106BCBF46EA0646360C4FF000
:1015E00000034FF000024FF0000194E72DE9804C1A
:1015F0009A46934670B491E8380007C831EA400C27
:1016000048BF34EA430C03D5FFF7E6FDFFF780FF40
:10161000F0BCBDE8008C2DE9804C9A46934670B42E
:1016200091E8380007C810F0804F08BF13F0804FD2
:1016300003D100F005F8FFF76BFFF0BCBDE8008CAC
:1016400020F07F4780EA030023F07F4C07EB0C0378
:10165000A3F57C5300F00040A3F1FE0392F0000FCD
:1016600000F0B38095F0000F00F077802DE901497C
:101670004FEA11404FEA144621EA004800FB06FCFD
:1016800024EA064708FB06F607FB08F800FB07F705
:1016900018EB06484CEB164C4FEA124B18EB074878
:1016A0004FEA15464CEB174022EA0B4E0BFB06FCAB
:1016B00025EA06470EFB06F607FB0EFE0BFB07F7B7
:1016C0001EEB064E4CEB164C4FF000061EEB074E81
:1016D0004CEB174B18EB0B0840F1000018EB0E0B0E
:1016E00058EB000840F100008F1A4FF000013CBF9A
:1016F000C943661B14BFB5EB040C00213CBFC943B2
:10170000F61B4FEA17444EEA8E0E27EA04454FEACD
:101710001C4704FB07622CEA074C05FB07F70CFB90
:1017200005F604FB0CFC16EB074642EB174216EBE2
:101730000C4642EB1C421BEB060658EB02024141F1
:1017400046EA9E0601D5BDE80189B619524141EB32
:101750000101A3F10103BDE801894FEA14454FEAF5
:10176000114724EA054621EA074C05FB07F406FB6E
:1017700007F70CFB06F105FB0CFC11EB074144EBF2
:1017800017444FEA124711EB0C4144EB1C4422EA88
:10179000074C05FB07F206FB07F70CFB06F605FBFB
:1017A0000CFC16EB074642EB174216EB0C4642EBDD
:1017B0001C456A1854F1000148BF7047B6195241E0
:1017C00041EB0101A3F10103704795F0000F37D001
:1017D0004FEA11424FEA144721EA024624EA074C35
:1017E00002FB07F106FB07F70CFB06F402FB0CFCFF
:1017F00014EB074441EB17414FEA154714EB0C4437
:1018000041EB1C4125EA074C02FB07F506FB07F7F5
:101810000CFB06F602FB0CFC16EB074645EB1745E6
:1018200016EB0C4645EB1C42121951F1000148BF62
:101830007047B619524141EB0101A3F10103704712
:101840004FEA14454FEA114724EA054621EA074CBE
:1018500005FB07F106FB07F70CFB06F24FF000064D
:1018600005FB0CFC12EB074241EB174112EB0C425B
:1018700051EB1C4148BF7047921841EB0101A3F1A5
:101880000103704721B1826842F00102826003E0E7
:10189000826822F0010282607047000010B50446A1
:1018A0001248844208D10121401500F013FE0021A6
:1018B000601500F00FFE17E00D48844208D10121A9
:1018C000001500F007FE0021201500F003FE0BE0DC
:1018D0000848844208D10121C80300F0FBFD002123
:1018E0004FF4004000F0F6FD10BD00000024014060
:1018F00000280140003C0140014600208A6802F0B7
:1019000004020AB1012000E0002070470146C86CC3
:1019100080B270470246002013680B400BB10120D3
:1019200000E000207047014600208A6802F00802AB
:101930000AB1012000E000207047000030B50246E7
:101940000020002350680F4C20400D790C6844EAB9
:1019500005242043506090680B4C2040D1E902548C
:101960002C434D7944EA450420439060D06A20F42A
:1019700070000C7C641EE4B2234340EA0350D06242
:1019800030BD0000FFFEF0FFFDF7F1FFF0B50446AB
:101990000D4600200021092D11DDE068A5F10A06A1
:1019A00006EB4607072606FA07F18843A5F10A0663
:1019B00006EB460603FA06F10843E0600CE02069F6
:1019C00005EB4507072606FA07F1884305EB4506B0
:1019D00003FA06F108432061072A0FDA606B561EEE
:1019E00006EB86071F2606FA07F18843561E06EB0C
:1019F000860605FA06F10843606322E00D2A0FDA35
:101A0000206BD61F06EB86071F2606FA07F18843D0
:101A1000D61F06EB860605FA06F10843206310E0A0
:101A2000E06AA2F10D0606EB86071F2606FA07F10B
:101A30008843A2F10D0606EB860605FA06F1084377
:101A4000E062F0BD816841F008018160704721B11A
:101A5000826842F4A002826003E0826822F4A0025D
:101A600082607047816841F0040181607047000026
:101A700000B587B001214FF4017000F01BFD4FF459
:101A8000004000F0EBFC0220ADF8040000208DF8CF
:101A9000070001A9174800F0B3F91748FFF7FEFE49
:101AA000002002908DF80C008DF80D004FF460209E
:101AB00004900020059001208DF8180002A90E481E
:101AC000FFF73CFF01210C48FFF7DCFE0A48FFF757
:101AD000B9FF00BF0848FFF726FF0028FAD10648E3
:101AE000FFF7C0FF00BF0448FFF706FF0028FAD148
:101AF00007B000BD000801400024014070B500257A
:101B0000002678E0052E72D2DFE806F003182D3D9E
:101B10004800681CC5B200F056FB04466CB90120B1
:101B200000F02EFB044644B90120334908604FF40D
:101B3000FA7001F049FB0025012658E0681CC5B287
:101B400000F041FB04466CB9022000F019FB04468A
:101B500044B900202849091D0860642001F034FBC5
:101B60000025022643E000F0D3FB044624B964209C
:101B700001F02AFB032601E0002500264FF4FA704D
:101B800001F022FB33E000F0E0FB04460CB9042630
:101B900000E00026642001F017FB28E017480188C8
:101BA000022000F005FC0446FCB900201249086040
:101BB0001349C1F898014FF4FA7001F005FB114880
:101BC00000F026FC0020104908800C480088401CCA
:101BD0000A49088001200D49088000200C4908802E
:101BE0000C4908800C49088070BD002600BF00BF6A
:101BF000642001F0E9FA85E79401214238000020D1
:101C000000002142280000203A000020300000207F
:101C100032000020340000203600002000BFFEE724
:101C200070B5044605E01548456B05F0450000B168
:101C300000E0F8E700BF042000F0CAFD20B1042056
:101C400000F0C0FD032070BD012000F0C1FD20B1F7
:101C5000012000F0B7FD0120F5E708480069A04227
:101C600001D01020EFE740F2FF5004498863084696
:101C7000406908210840C0B2E5E70000008001404B
:101C80007047000010B50A2001F09EFA02210C48AE
:101C900000F041F901280FD10A48007808B9012065
:101CA00000E00020074908700748006808B90120D3
:101CB00000E0002004490860012000F031F810BD68
:101CC000000C014050000020A00121420EB500F0A0
:101CD000C1F90121084600F0EDFB0021084600F0A3
:101CE0006FF80120019000208DF8080008208DF881
:101CF000090001208DF80A0001A800F017F806205D
:101D00008DF8000002208DF8010003208DF80200FC
:101D100001208DF80300684600F0F0F90EBD0000C8
:101D20000149086070470000140401400021234964
:101D30008279002A3AD00A46126803689A430B4611
:101D40001A600A1D126803689A430B1D1A60027913
:101D500011440A6803681A430A60184A0832126874
:101D600003689A43154B08331A601A1D12680368FA
:101D70009A43124B0C331A604279102A0ED11A1F63
:101D8000126803681A430D4B08331A601A1D126853
:101D900003681A43094B0C331A600DE00749427976
:101DA00011440A6803681A430A6005E00279114485
:101DB0000A6803689A430A60704700000004014003
:101DC00030B500228B071C0F0F2303FA04F20B4BD4
:101DD0008C1053F824309343084C8D1044F8253070
:101DE00023468C1053F824308C07240F00FA04F497
:101DF0002343024C8D1044F8253030BD08000140CB
:101E00002DE9F04102460025002600200023002491
:101E1000002791F803C00CF00F0591F803C00CF0F7
:101E2000100CBCF1000F03D091F802C04CEA05057C
:101E300091F800C0BCF1000F31D0146800202BE0F5
:101E40004FF0010C0CFA00F3B1F800C00CEA0306E5
:101E50009E4220D183004FF00F0C0CFA03F7BC43D5
:101E600005FA03FC4CEA040491F803C0BCF1280F06
:101E700006D14FF0010C0CFA00FCC2F814C00AE0C5
:101E800091F803C0BCF1480F05D14FF0010C0CFADA
:101E900000FCC2F810C0401C0828D1D31460B1F86F
:101EA00000C0BCF1FF0F34DD546800202EE000F1CB
:101EB000080C4FF0010808FA0CF3B1F800C00CEA66
:101EC00003069E4221D183004FF00F0C0CFA03F75A
:101ED000BC4305FA03FC4CEA040491F803C0BCF1CE
:101EE000280F05D100F1080C08FA0CF8C2F814808C
:101EF00091F803C0BCF1480F07D100F1080C4FF076
:101F0000010808FA0CF8C2F81080401C0828CED34B
:101F10005460BDE8F0810246002093680B400BB18D
:101F2000012000E0002070470161704710B50446B1
:101F30000723012221460948FFF728FD0121074810
:101F4000FFF785FD00BF02210448FFF7E3FC0028EE
:101F5000F9D00248FFF7DAFC10BD00000024014070
:101F60002DE9F04107460C460025002608E03846DA
:101F7000FFF7DCFF0544052001F026F9701CC6B20E
:101F8000A642F4DBB5FBF4F080B2BDE8F08100BFFF
:101F9000FEE70146CA1701EB92729210A1EB820292
:101FA00092B9642091FBF0F200FB121050B94FF48B
:101FB000C87091FBF0F200FB121008B901207047C5
:101FC0000020FCE70120FAE70020F8E77CB5054691
:101FD000EF208DF8000001208DF801001A480068FC
:101FE000000E8DF8020018480068000C8DF8030000
:101FF00015480088000A8DF80400134800788DF811
:10200000050007208DF8060000208DF807000F4915
:10201000088012E0012001F0D7F80C48008800F495
:10202000004050B100200949088069460848FEF781
:102030005DFA04460CB120467CBD681E80B2051EC8
:10204000E8D100BFF8E700002400002018000020BD
:10205000B200002008B50121042000F02BFA012075
:10206000ADF8000028208DF8030069460148FFF70D
:10207000C7FE08BD0008014008B50121042000F09A
:1020800019FA4FF4F970ADF8000003208DF8020042
:1020900010208DF8030069460E48FFF7B1FE0221BB
:1020A0000C48FFF741FF10210A48FFF73DFF2021B0
:1020B0000848FFF739FF40210648FFF735FF802128
:1020C0000448FFF731FF4FF480710248FFF72CFFFF
:1020D00008BD00000008014000BF0549098801F063
:1020E00040010029F9D00249091D0880704700000D
:1020F0000048004000BFFEE77047000070B50021B7
:1021000000230F22C47804B3154C246804F4E0645F
:10211000C4F5E064210AC1F10403CA40447804FA1A
:1021200003F184781440214309010E4C0678A1552F
:10213000047804F01F050124AC4005786D11AD0052
:1021400005F1E025C5F8004109E0047804F01F0519
:102150000124AC40044D0678761145F8264070BD48
:102160000CED00E000E400E080E100E00249014302
:10217000024A1160704700000000FA050CED00E013
:102180002DE9F041054600F012FC00F0E7FB0120CC
:1021900000F007FC042000F012FC022000F019FC03
:1021A0002846FFF799FFEF1D384600F0F1FB4FF48A
:1021B000FA60FFF70BFF06460EB1747A00E0FF24C9
:1021C0002046BDE8F08170B500F0F1FB00F0C6FBE1
:1021D000012000F0E6FB032000F0F1FB012000F0FD
:1021E000F8FB0526304600F0D3FB4FF4FA60FFF70A
:1021F000EDFE05460DB16C7A00E0FF24204670BD6F
:1022000010B5044600F0D3FB00F0A8FB0120FFF757
:1022100063FF0020FFF760FF0020FFF75DFFC8208D
:1022200000F0D2FF1448008800F4004008B31348BF
:102230000078EF281AD111484078012816D10F48AC
:102240008079072812D10D48807800060B49C9789B
:1022500000EB01400949097900EB01200749497960
:102260000844206000200449088010BD0020024975
:1022700008800120F9E7000018000020B2000020CB
:102280002DE9F04781460D4616461F4600F08FFBAC
:1022900000F064FB012000F084FB082000F08FFBBD
:1022A0001B2000F096FB4846FFF716FF2812FFF7A9
:1022B00013FFE8B2FFF710FF3012FFF70DFFF0B287
:1022C000FFF70AFF09F1240000EB2520E9B20844DA
:1022D00000EB2620F1B200EB010A504600F058FB5B
:1022E0004FF4FA60FFF772FE044664B194F8098077
:1022F000E07AA17A00EB01203880607B217B00EB43
:102300000120788001E04FF0FF084046BDE8F087EB
:1023100070B500F04CFB00F021FB012000F041FB08
:10232000032000F04CFB032000F053FB072630464F
:1023300000F02EFB4FF4FA60FFF748FE05460DB1A2
:102340006C7A00E0FF24204670BD70B500F02FFBD2
:1023500000F004FB012000F024FB032000F02FFB21
:10236000052000F036FB0926304600F011FB4FF443
:10237000FA60FFF72BFE05460DB16C7A00E0FF24F2
:10238000204670BD08B50121102000F093F82020F0
:10239000ADF8000028208DF8030003208DF802001E
:1023A00069460248FFF72CFD08BD000000100140FF
:1023B0002DE9F04106460C4600F0F9FA00F0CEFA9D
:1023C000012000F0EEFA062000F0F9FA062000F0F5
:1023D00000FB3046FFF780FE2012FFF77DFEE0B2E3
:1023E000FFF77AFE06F10D0000EB2420E1B200EBCE
:1023F0000108404600F0CCFA4FF4FA60FFF7E6FD22
:1024000007460FB17D7A00E0FF252846BDE8F08140
:102410002DE9F041064600F0CAFA00F09FFA0120CB
:1024200000F0BFFA032000F0CAFA1D2000F0D1FA34
:102430002127384600F0ACFA4FF4FA60FFF7C6FDEA
:10244000044634B1657AE07AA17A00EB012030804D
:1024500000E0FF252846BDE8F081704701460020D6
:10246000034A506820F44040084350607047000021
:102470000010024029B1064AD2690243044BDA61D6
:1024800004E0034AD2698243014BDA6170470000DD
:102490000010024029B1064A12690243044B1A6136
:1024A00004E0034A12698243014B1A61704700003D
:1024B0000010024029B1064A92690243044B9A6116
:1024C00004E0034A92698243014B9A61704700001D
:1024D0000010024029B1064AD2680243044BDA6078
:1024E00004E0034AD2688243014BDA60704700007F
:1024F0000010024030B500210022002400232D4DA1
:102500006D6805F00C0121B1042905D0082923D1FB
:1025100005E0294D056022E0274D05601FE0254DAF
:102520006D6805F47012234D6D6805F48034022542
:1025300005EB92421CB9214D554305600BE01D4D42
:102540006D6805F400351DB11C4D5543056002E072
:10255000194D5543056002E0174D056000BF00BFEF
:10256000144D6D6805F0F0010909154D6B5C0568A7
:10257000DD4045600F4D6D6805F4E061090A104DBE
:102580006B5C4568DD4085600A4D6D6805F46051FF
:10259000C90A0B4D6B5C4568DD40C560054D6D6833
:1025A00005F44041890B074D6B5CC568B5FBF3F53D
:1025B000056130BD0010024000127A0000093D00A4
:1025C0005600002066000020024909888143014A24
:1025D000118070470428004070B5002600240025B3
:1025E00000F07AF806463848B6FBF0F43748008821
:1025F000A0423CD035490C8040F2B27510E028462C
:10260000FFF7C7FC40B1B4F5B77F02D3A4F5B774A8
:1026100004E0681C85B206E0A4F26D14681C85B263
:10262000B4F5B67FEBD800BF29488580002516E0B9
:1026300027498888FFF7ADFC30B1012D04D11D2C4E
:1026400001D31D3C09E00CE02248405DA04203D8C4
:102650002048405D241A00E003E0681C85B21C2C71
:10266000E6D200BF681C1A498871601CC871164800
:10267000B6FBF0F100FB11644FF46160B4FBF0F0C5
:10268000134908704FF46160B4FBF0F100FB114096
:102690003C21B0FBF1F00E4948704FF46160B4FB8F
:1026A000F0F100FB11403C21B0FBF1F201FB120004
:1026B000074988700B46DA799979988800F028F8EC
:1026C00003490872002070BD805101003C000020C9
:1026D000CE040020F63B0008002103480188001FBB
:1026E000008841EA004070471C2800400146002055
:1026F000064A12880A40D0B2044A121F12880A40C1
:1027000012B108B1012000E0002070470428004009
:10271000F0B503460C461546642093FBF0F0C6B2B4
:10272000642093FBF0F700FB1730C1B2132E02DDDB
:1027300001F16400C1B20846CF1701EB977701EBB6
:10274000A707BAB2072092FBF0F700FB172082B26E
:102750005719601EDFF82CC01CF80000384482B204
:10276000CF1701EB9777BF10A1EB87071FB9032C99
:1027700001DA501E82B2072092FBF0F700FB17200F
:10278000C0B2F0BDEA3B000810B50120FFF7AEFF74
:1027900008B1FFF721FF0220FFF7A8FF10B10220C8
:1027A000FFF712FF0520FFF70FFF00F001F810BD43
:1027B00000BF0348008800F020000028F9D07047CF
:1027C00004280040014988637047000000800140F0
:1027D00001460020034A526B0A400AB1012000E082
:1027E000002070470080014010B500F017F810BDC0
:1027F0000021094B02689A601A46D1686FF30A01FA
:10280000D0E901231A43C3681A4303691A431143E9
:10281000014AD160704700000080014010B549486E
:10282000406B00F4807070B347480078012814D1E1
:102830000020464908600C20486040208860002045
:10284000C8604FF4806008610846FFF7D1FF0C2094
:10285000FFF7E6F93E49087002E000203C490870A5
:102860003848806B40F48070364988630846C06BF6
:102870004CF23A3188433349C86301203549087026
:102880003348007810BDFFE70220FFF7A1FF68B1D1
:102890000220FFF797FF2B48C06B4CF23A31884378
:1028A0002849C86302202A490870EBE70820FFF78F
:1028B0008FFF68B10820FFF785FF2248C06B4CF2FC
:1028C0003A3188431F49C863042021490870D9E779
:1028D0002020FFF77DFF68B12020FFF773FF194824
:1028E000C06B4CF23A3188431649C8630620184938
:1028F0000870C7E71020FFF76BFF68B11020FFF7E3
:1029000061FF1048C06B4CF23A3188430D49C863EF
:1029100005200F490870B5E74FF40070FFF758FF26
:1029200070B14FF40070FFF74DFF0648C06B4CF2DA
:102930003A3188430349C863072005490870A1E775
:1029400000209FE70080014049000020F0040020A3
:102950004A0000204B0000207047000010B50B49D2
:102960000968080EFFF7B8FB08480068C0F3074085
:10297000FFF7B2FB05480088C0F30720FFF7ACFB68
:1029800002490878FFF7A8FB10BD000024000020D2
:1029900010B504462012FFF79FFBE0B2FFF79CFB47
:1029A00010BD10B504462046FFF796FB10BD10B5CC
:1029B000EF20FFF791FB0120FFF78EFB10BD10B554
:1029C0000446C4F30720FFF787FBE0B2FFF784FB60
:1029D00010BD10B504462046FFF77EFB10BD10B5B4
:1029E00000F002F810BD00000CB50020019000902E
:1029F0003348006840F480303149086000BF3048F7
:102A0000006800F4003000900198401C019000988C
:102A100018B90198B0F5A06FF1D12948006800F409
:102A2000003010B10120009001E0002000900098DB
:102A3000012843D12348006840F010002149086074
:102A40000846006820F0030008600846006840F06F
:102A5000020008601A484068194948600846406802
:102A600048600846406840F4806048600846406816
:102A700020F47C1048600846406840F4E810486044
:102A80000846006840F08070086000BF0C4800688D
:102A900000F000700028F9D00948406820F00300D9
:102AA000074948600846406840F00200486000BF9F
:102AB0000348406800F00C000828F9D10CBD000064
:102AC0000010024000200240042808D14FF0E0210D
:102AD000096941F004014FF0E022116107E04FF075
:102AE000E021096921F004014FF0E02211617047F3
:102AF0007047000010B51348006840F0010011490C
:102B0000086008464068104908400E494860084679
:102B100000680E4908400B4908600846006820F428
:102B2000802008600846406820F4FE0048604FF4AA
:102B30001F008860FFF753FF4FF0006004490860F2
:102B400010BD0000001002400000FFF8FFFFF6FE7D
:102B500008ED00E010B50121880700F098F818B1E1
:102B60000121880700F084F810BD000010B5012194
:102B7000144800F08CF820B313480078E8B11348EB
:102B80000088401C1149088008460088B0F5FA6F9B
:102B900013DD01200E4908600E49C1F8B4010C494B
:102BA00008310860091D08600B490860091D0860AC
:102BB000002006490880044908700121014800F0FE
:102BC00057F810BD000400400C0000200E0000204B
:102BD000B0812142008021429401214210B501219F
:102BE000094800F054F868B10848008840F40040F3
:102BF000064908800121044800F03AF80021024803
:102C000000F039F810BD000000140040180000204A
:102C10007FB505460C4601212020FFF72BFCADF8BF
:102C20000450ADF800400020ADF80600ADF80200F9
:102C300069460E4800F048F8012211460B4800F0A2
:102C400037F80121094800F016F837208DF80C00FC
:102C500000208DF80D0002208DF80E0001208DF867
:102C60000F0003A8FFF74AFA7FBD000000140040E0
:102C7000CA430282704721B1028842F001020280F9
:102C800004E002884FF6FE731A400280704730B5A8
:102C90000246002000230024158A05EA01039589D5
:102CA00005EA010413B10CB1012000E0002030BDA1
:102CB0001AB183890B43838102E083898B4383812B
:102CC0007047818470470000002202881D4B9842A3
:102CD0000ED01D4B98420BD0B0F1804F08D01B4B4B
:102CE000984205D01A4B984202D01A4B984204D110
:102CF0004FF68F731A404B881A43174B984207D0F0
:102D0000164B984204D04FF6FF431A40CB881A4323
:102D100002808B8883850B8803850A4B98420BD0F1
:102D2000094B984208D00E4B984205D00D4B984263
:102D300002D00D4B984201D10B7A03860123838286
:102D400070470000002C01400034014000040040A6
:102D500000080040000C004000100040001400403B
:102D600000400140004401400048014010B540F2DD
:102D700025511D4800F026F910B31B4800F0DEF97C
:102D8000C4B21A48008800F40040C8B91748008847
:102D900000F4804060B10A2C03D000201349088061
:102DA00020E01248008840F400401049088019E0F3
:102DB0000D2C06D10D48008840F480400B49088056
:102DC00010E00A480088C0F30D0009490C54074878
:102DD0000088401C0549088008460088C72801DD96
:102DE0000020088010BD0000003801401A000020BB
:102DF000D203002070B50024002540F225511E4862
:102E000000F0E0F8002836D01B4800F097F9C4B273
:102E1000FD2C06D1194890F8330010B9012018494B
:102E2000087017480078012821D1144890F8320022
:102E300012490C54084690F83200401C81F83200C8
:102E4000084690F83200042811DD084640780D4904
:102E500008700A48C0780C49087008488078C01C7F
:102E6000C5B2002006490870044981F832002021CB
:102E7000014800F043F870BD004400409A0400206F
:102E80001C000020100000201100002010B540F2AE
:102E90002551164800F096F8F8B1144800F04EF9A4
:102EA000C4B21348008800F40040B0B9104800884C
:102EB000B0F5C87F12DA00210E48FFF702FF0C4878
:102EC000008818B901210B48FFF7D5FE084908888A
:102ED000411C074A118008490C5405E00448008849
:102EE00040F400400249088010BD00000048004046
:102EF0001800002000140040B200002001F400720D
:102F0000B2F5007F00D100BFCA430280704721B1F3
:102F1000828942F40052828104E082894DF6FF7377
:102F20001A4082817047000010B504462048844250
:102F300009D101218803FFF7CDFA00214FF4804029
:102F4000FFF7C8FA32E01B48844209D10121480446
:102F5000FFF7A0FA00214FF40030FFF79BFA25E0BD
:102F60001548844209D101218804FFF793FA002112
:102F70004FF48020FFF78EFA18E01048844209D100
:102F80000121C804FFF786FA00214FF40020FFF763
:102F900081FA0BE00A48844208D101210805FFF7B5
:102FA00079FA00214FF48010FFF774FA10BD000089
:102FB000003801400044004000480040004C004000
:102FC0000050004070B50246002400230025002078
:102FD00040F66A16B14200D100BFC1F3421501F0BC
:102FE0001F03012606FA03F3012D02D1968933400F
:102FF00006E0022D02D1168A334001E0968A334062
:103000000C12012606FA04F41688344013B10CB1F0
:10301000012000E0002070BDF0B50346002400262A
:103020000025002040F66A17B94200D100BF1846BB
:10303000C1F3421401F01F06012707FA06F5012C1F
:1030400001D10C3004E0022C01D1103000E014302A
:103050001AB107682F43076002E00768AF430760B3
:10306000F0BD00002DE9F04786B005460E4600246D
:10307000A24600BFA1460027B08900B100BF2F467D
:103080002C8A4CF6FF700440F08804432C82AC89F3
:103090004EF6F3100440B088318908437189084323
:1030A0000443AC81AC8A4FF6FF400440B08904432E
:1030B000AC8201A8FFF71EFA1F48874202D1DDF853
:1030C00010A001E0DDF80CA0A88900F4004040B198
:1030D0000AEBCA0000EB0A1031684900B0FBF1F8B6
:1030E00007E00AEBCA0000EB0A1031688900B0FB68
:1030F000F1F86420B8FBF0F004012009642101FB21
:103100001089A88900F4004040B1322000EBC900CA
:10311000B0FBF1F000F00700044308E0322000EBC0
:1031200009106421B0FBF1F000F00F0004432C8182
:1031300006B0BDE8F08700000038014001468888ED
:10314000C0F30800704700BFFEE7490050EAC12005
:1031500018BF04204A0D18BF40F0010040F2FF7272
:10316000B2EB515F08BF40F00200012808BF052004
:10317000704730380A2801D201207047002070477C
:1031800000BF704710B56FF00400FFF79DFC0A48C0
:1031900000680A49B0FBF1F0094908700846007858
:1031A00000EB4001C1EBC0104FF6FF7101EAC00017
:1031B0000449088010BD00006C00002000127A0055
:1031C00052000020540000200146114A12884A4350
:1031D0004FF0E0235A6100229A611A46126942F0C8
:1031E00001021A6100BF4FF0E022106900F00102F5
:1031F0001AB100F48032002AF5D04FF0E0221269B3
:1032000022F001024FF0E0231A6100229A61704718
:103210005400002000BF054A128802F04002002A34
:10322000F9D0C2B2014B1B1D1A8070470044004008
:103230002DE9F0470A210120FEF792FE814600F0B9
:103240003FFC044600F004FC07464FF06632124B88
:1032500000F000FB054600F0CBFA104908604FF083
:1032600080410E48006800F03FFC09D200200C4964
:1032700008600C49C1F8980109490831086008E064
:103280000120074908600749C1F89801044908313D
:103290000860BDE8F087000066664A3F080000202D
:1032A000940121420000214210B51948006830B154
:1032B00018A0FDF70FF81B48FDF700F805E01AA06D
:1032C000FDF708F81748FCF7F9FF1148001D0068E2
:1032D00030B119A0FCF7FEFF1248FCF7EFFF05E044
:1032E00019A0FCF7F7FF0F48FCF7E8FF0848083083
:1032F000006830B118A0FCF7EDFF0A48FCF7DEFFCC
:1033000005E019A0FCF7E6FF0648FCF7D7FF10BD63
:10331000940121426C65642E70302E7069633D34D7
:1033200000000000010000206C65642E70302E70DB
:1033300069633D35000000006C65642E70312E70AD
:1033400069633D34000000006C65642E70312E709E
:1033500069633D35000000006C65642E70322E708C
:1033600069633D34000000006C65642E70322E707D
:1033700069633D350000000019480078012804D039
:1033800002280ED0032828D119E01648006808B991
:10339000012000E000201349086000201049087057
:1033A0001CE01048001D006808B9012000E0002062
:1033B0000C49091D08600020094908700EE0094801
:1033C0000830006808B9012000E0002005490831F4
:1033D000086000200249087000E000BF00BF70478D
:1033E00011000020940121424FF4A060FEF7BEFEC0
:1033F000FFF7C8FEFEF72EFEFEF73EFEFEF766FC68
:103400004FF4165000F00CF94FF4614000F05CF9F5
:10341000FEF7B8FFFEF72CFB03E04FF4C870FFF790
:10342000D3FE2F48FEF7ECFE0028F6D156E02D48DB
:10343000007830B1012807D003282CD0042844D1CB
:103440003EE000F075F841E027A0FCF743FF2C4870
:10345000FCF734FF20212B48FEF75DFD012819D130
:1034600000202949086001202849C1F8980126490F
:1034700008310860FEF742FB012023490860091D5E
:10348000086000201749087021A0FCF723FF1C48A2
:10349000FCF714FF1AE001201B4908601B49C1F822
:1034A000980119490831086000200E4908701F482A
:1034B000007808B9012000E000201C49087005E0F0
:1034C000FFF75AFFFFF7F0FE00E000BF00BF17480C
:1034D000007818B1FFF7ACFEFFF7E6FEA7E70000A3
:1034E00024000020100000206164642E74302E74CB
:1034F00078743D22D6B8CEC6CCEDBCD322000000F5
:1035000001000020001001409401214200002142EE
:103510006164642E74302E7478743D22D6B8CEC6A1
:10352000CCEDBCD3B3C9B9A6220000000000002036
:1035300038B5FEF748FE0446002C6AD10120FEF79C
:103540001FFE0446002C63D16B464FF49672002197
:103550000120FEF795FE0446002C30D12E4908606C
:103560002E49C1F898012C49083108604FF4967033
:10357000FFF72AFE012028490860091D0860274935
:10358000C1F89C014FF49670FFF71EFE00202249FF
:103590000860091D08602149C1F89C014FF496702C
:1035A000FFF712FE01201C490860091D08601B4935
:1035B000C1F89C014FF49670FFF706FE29E0002049
:1035C000154908601549C1F89C014FF49670FFF742
:1035D000FBFD0120104908601049C1F89C014FF41F
:1035E0009670FFF7F1FD00200B4908600B49C1F808
:1035F0009C014FF49670FFF7E7FD01200649086033
:103600000649C1F89C014FF49670FFF7DDFD00E01C
:1036100038BD00BFFCE700009401214200002142B8
:1036200010B586B0044601210420FEF743FF0121B6
:103630004804FEF71FFF2248FFF776FC0420ADF890
:10364000100003208DF8120018208DF8130004A933
:103650001C48FEF7D5FB0820ADF8100004208DF8BB
:10366000130004A91748FEF7CBFB00940020ADF827
:103670000400ADF80600ADF80800ADF80C000C2011
:10368000ADF80A0069460E48FFF7ECFC01210C4832
:10369000FFF73DFC012240F225510948FFF7BCFC31
:1036A00026208DF8140003208DF815008DF81600E3
:1036B00001208DF8170005A8FEF720FD06B010BD0B
:1036C000004400400008014010B586B004460121C6
:1036D0000820FEF7EFFE01218804FEF7CBFE2A4802
:1036E000FFF722FC4FF48060ADF8100003208DF846
:1036F000120018208DF8130004A92448FEF780FB5F
:103700004FF40060ADF8100004208DF8130004A9F8
:103710001E48FEF775FB00940020ADF80400ADF8DC
:103720000600ADF80800ADF80C000C20ADF80A005A
:1037300069461548FFF796FC01211348FFF7E7FBA0
:10374000012240F225511048FFF766FC27208DF832
:10375000140002208DF8150003208DF816000120BA
:103760008DF8170005A8FEF7C9FC41F61F4163203C
:10377000FFF74EFA00200649088000210548FFF7B0
:103780007AFA06B010BD000000480040000C01406D
:10379000180000200014004010B500290AD0087855
:1037A000002807D005487844FCF7B2FE002801D075
:1037B000002010BD0248784410BD000052050000F2
:1037C0004A05000010B500290AD00878002807D063
:1037D00005487844FCF79CFE002801D0002010BD6D
:1037E0000248784410BD0000420500003A05000080
:1037F00021F00042A2F16052B2F5801F01F00043B7
:1038000028BFD2F17F6C0BD95FEA001C43EAC202E9
:1038100042EB507018BF704728BF20F0010070477E
:10382000B2F5801FBCBF184670474FEA410C1CF52B
:10383000001F02D2084600F0D1B970B500F0B4F80C
:1038400000000089FFF7F6BF4FF00040A0F58000B0
:1038500070470000DFF848C170B51CEA111E1EBF9A
:103860001CEA13159EEA0C0F95EA0C0F00F06F800E
:1038700081EA030423EA4C134EEAD47E21EA4C1178
:1038800041F4801143F48013AE44A1FB024CA0FB31
:103890000365AEF17F7E361955EB0C05A1FB034C99
:1038A0004CF10003A0FB021C16EB0C06654153F122
:1038B0000003094218BF46F0010613F4007F0BD144
:1038C0004FEA03314FEA0530340341EA155140EA2B
:1038D00016506FF003020AE04FEAC3214FEAC520F9
:1038E000F40241EA555140EA56506FF0020202EBF1
:1038F0002E4201EB025585EACE710AD05FEA440CF4
:1039000018BF24F0004450F1000041F1000120EA0A
:10391000D47040F2FE7C624500D270BDA84214BF54
:103920004FF080444FF04044002E08BF0024BEF109
:10393000806FA8BFA1F1C041BDE8704080F28280D5
:103940004FF0000001F1C04101F0004170479EEAD4
:103950000C0F0CEA131518BF95EA0C0F06D04FF0A8
:10396000000081EA030E0EF0004170BD00F01CF86B
:103970008900013E00F007B800F009B84FEA430C97
:103980005FEA5C5C08D081EA030100F05BB84FEAB3
:10399000410C5FEA5C5CF6D14FF0000001497047D2
:1039A0000000FF070000F87F0EF1020E2EF0030E5C
:1039B0005EF8046B364205D4012A43EB030515F586
:1039C000001F12D8012841EB010C1CF5001F0CD878
:1039D0000ED14FEAD17C15F5001F0CEB4C0C0CF10D
:1039E000020C08BF4CEBD37C04E04FF0080C01E064
:1039F0004FEAD37C0CEB4C0526FA05F606F00706D9
:103A0000B6F1040C06D20EEB860CBDE870404CF00B
:103A1000010C6047DFE80CF0090B02024FF0004197
:103A20004FF00000A1F5002170BD19461046012895
:103A300051EB010418BFD4F5001484BF002001F03D
:103A4000004170BD0808A0F500114FEA3101704730
:103A500043004FEAD30C4FEA3C0C43401FBF4007E2
:103A60000CF1605113F0FE4F70471CF0006F03D152
:103A700000200CF0004170470CF0004343EA507006
:103A800010B540EACC0000F063F800BF00000092DF
:103A90004FEA0001FFF7D6BF4FF000414FF00000A2
:103AA000A1F500217047401058BFC0F140404910B7
:103AB00058BFC1F140418142EFF3008070470000E0
:103AC000B0FA80F310FA03F2C3F19D030AD0D905CE
:103AD00001EB1220530638BF704700F1010008BF08
:103AE00020F001007047000050EA010C00F1138043
:103AF0001CF5000F58BFBCF5000F01D48842704779
:103B000007D710F5000F58BF11F5000F15D48842E4
:103B10007047894270471CF5000F04D5BCF5000FB3
:103B2000F7D5814270474FF0807C1CEB400F38BFC7
:103B30001CEB410F01D28142704710B500F008F82C
:103B4000922449004FF000504FF08051FFF7ABBF77
:103B50000EF1020E2EF0030E5EF8044B244204D444
:103B60004FEA4102B2F17F4F11D84FEA4003B3F15F
:103B70007F4F0CD80ED14FEAD07CB2F17F4F0CEBC7
:103B80004C0C0CF1020C08BF4CEBD17C04E04FF064
:103B9000080C01E04FEAD17C0CEB4C0324FA03F44F
:103BA00004F00704B4F1040C06D20EEB840CBDE85B
:103BB00010404CF0010C6047DFE80CF007080202EF
:103BC0004FF00040A0F5800010BD0846420018BF2D
:103BD000D2F1807288BF00F0004010BDFF2141EAA1
:103BE000D050C0057047FDF70DB80003030601046F
:103BF0000602050003051F1C1F1E1F1E1F1F1E1F80
:103C00001E1F040000080000000000000002000168
:103C100000001000000000000000000030313233CE
:103C200034353637383941424344454640305800F0
:103C30003031323334353637383961626364656622
:103C40004030780002400000000000A000000000AA
:103C500005400000000000C8000000000C4000000B
:103C60000000409C00000000194000000020BCBE85
:103C70000000000034400000BFC91B8E000000049B
:103C8000B5400000504BCFD06607E2CF01000000E6
:103C90006C4100003E8251AADFEEA7340100000013
:103CA000D9420000DCB5A0E23A301F97FFFFFFFFCA
:103CB000B4450000FD25A0C8E9A3C14FFFFFFFFFE9
:103CC000FF3F00000000008000000000FF3F0000F8
:103CD0000000008000000000243E000800000020DA
:103CE000800000006C010008A43E00088000002055
:103CF000780D0000880100081C000000430000004F
:103D0000F8FFFFFF0C0000000E0000000F00000095
:103D10002E0000001001000043000000F8FFFFFF2C
:103D200000404040404040404040414141414140CE
:103D30004040404040404040404040404040404083
:103D40004005020202020202020202020202020212
:103D50000220202020202020202020020202020217
:103D6000020290909090909010101010101010106F
:103D7000101010101010101010101010020202027B
:103D800002028888888888880808080808080808BF
:103D900008080808080808080808080802020202BB
:103DA00040000000000000000000000000000000D3
:103DB0000000000000000000000000000000000003
:103DC00000000000000000000000000000000000F3
:103DD00000000000000000000000000000000000E3
:103DE00000000000000000000000000000000000D3
:103DF00000000000000000000000000000000000C3
:103E000000000000000000000000000000000000B2
:103E100000000000000000000000000000000000A2
:103E20000000000000FFFFFF000000000000000095
:103E30000000000000000000000000000000000082
:103E40000000000000000000FFFFFFFF0000000076
:103E50000000000000000000000000000000000062
:103E60000000000000000000000000000100000051
:103E7000000000000000000000000000000001023F
:103E800003040102030406070809020406080000EF
:103E900000A24A0400000000000000000102030428
:043EA0000607080900
:0400000508000131BD
:00000001FF
